{"abi":[{"type":"constructor","inputs":[],"stateMutability":"nonpayable"},{"type":"function","name":"getNominees","inputs":[],"outputs":[{"name":"","type":"address[]","internalType":"address[]"}],"stateMutability":"view"},{"type":"function","name":"isNominee","inputs":[{"name":"account","type":"address","internalType":"address"}],"outputs":[{"name":"","type":"bool","internalType":"bool"}],"stateMutability":"view"},{"type":"function","name":"nominate","inputs":[{"name":"nominee","type":"address","internalType":"address"},{"name":"shouldNominate","type":"bool","internalType":"bool"}],"outputs":[],"stateMutability":"nonpayable"},{"type":"function","name":"nominations","inputs":[{"name":"nominee","type":"address","internalType":"address"}],"outputs":[{"name":"nominated","type":"bool","internalType":"bool"}],"stateMutability":"view"},{"type":"function","name":"nomineesCount","inputs":[],"outputs":[{"name":"","type":"uint256","internalType":"uint256"}],"stateMutability":"view"},{"type":"function","name":"nomineesSorted","inputs":[{"name":"","type":"uint256","internalType":"uint256"}],"outputs":[{"name":"","type":"address","internalType":"address"}],"stateMutability":"view"},{"type":"function","name":"owner","inputs":[],"outputs":[{"name":"","type":"address","internalType":"address"}],"stateMutability":"view"},{"type":"function","name":"renounceOwnership","inputs":[],"outputs":[],"stateMutability":"nonpayable"},{"type":"function","name":"transferOwnership","inputs":[{"name":"newOwner","type":"address","internalType":"address"}],"outputs":[],"stateMutability":"nonpayable"},{"type":"event","name":"NominationReceived","inputs":[{"name":"nominee","type":"address","indexed":true,"internalType":"address"}],"anonymous":false},{"type":"event","name":"NominationRevoked","inputs":[{"name":"nominee","type":"address","indexed":true,"internalType":"address"}],"anonymous":false},{"type":"event","name":"OwnershipTransferred","inputs":[{"name":"previousOwner","type":"address","indexed":true,"internalType":"address"},{"name":"newOwner","type":"address","indexed":true,"internalType":"address"}],"anonymous":false},{"type":"error","name":"OwnableInvalidOwner","inputs":[{"name":"owner","type":"address","internalType":"address"}]},{"type":"error","name":"OwnableUnauthorizedAccount","inputs":[{"name":"account","type":"address","internalType":"address"}]}],"bytecode":{"object":"0x6080604052348015600e575f80fd5b503380603357604051631e4fbdf760e01b81525f600482015260240160405180910390fd5b603a81603f565b50608e565b5f80546001600160a01b038381166001600160a01b0319831681178455604051919092169283917f8be0079c531659141344cd1fd0a4f28419497f9722a3daafe3b4186f6b6457e09190a35050565b6107248061009b5f395ff3fe608060405234801561000f575f80fd5b506004361061009f575f3560e01c8063980c407911610072578063affd8db011610058578063affd8db01461015a578063f2fde38b1461016d578063f95baf2614610180575f80fd5b8063980c407914610102578063a2064f4514610119575f80fd5b806310253227146100a3578063715018a6146100d35780638da5cb5b146100dd5780639636f67c146100ed575b5f80fd5b6100b66100b13660046105cb565b6101a2565b6040516001600160a01b0390911681526020015b60405180910390f35b6100db6101ca565b005b5f546001600160a01b03166100b6565b6100f56101dd565b6040516100ca91906105e2565b61010b60035481565b6040519081526020016100ca565b61014a610127366004610648565b6001600160a01b03165f9081526001602081905260409091205460ff1615151490565b60405190151581526020016100ca565b6100db610168366004610668565b61023d565b6100db61017b366004610648565b610513565b61014a61018e366004610648565b60016020525f908152604090205460ff1681565b600281815481106101b1575f80fd5b5f918252602090912001546001600160a01b0316905081565b6101d2610550565b6101db5f61057c565b565b6060600280548060200260200160405190810160405280929190818152602001828054801561023357602002820191905f5260205f20905b81546001600160a01b03168152600190910190602001808311610215575b5050505050905090565b610245610550565b8015610353576001600160a01b0382165f9081526001602081905260409091205460ff16151590036102be5760405162461bcd60e51b815260206004820152601160248201527f616c7265616479206e6f6d696e6174656400000000000000000000000000000060448201526064015b60405180910390fd5b6001600160a01b0382165f818152600160208190526040808320805460ff1916831790556002805480840182559084527f405787fa12a823e0f2b7631cc41b3ba8828b3321ca811111fa75cd3aa3bb5ace0180546001600160a01b0319168517905560038054909201909155517f0c20edab5f0aae928e069b742fcb70692c69c06d5cb6bfff526bba9cf3fbe33f9190a25050565b6001600160a01b0382165f9081526001602052604081205460ff16151590036103be5760405162461bcd60e51b815260206004820152600d60248201527f6e6f74206e6f6d696e617465640000000000000000000000000000000000000060448201526064016102b5565b6001600160a01b0382165f908152600160205260408120805460ff19169055600254905b818110156104d157836001600160a01b031660028281548110610407576104076106a1565b5f918252602090912001546001600160a01b0316036104c957600261042d6001846106b5565b8154811061043d5761043d6106a1565b5f91825260209091200154600280546001600160a01b039092169183908110610468576104686106a1565b905f5260205f20015f6101000a8154816001600160a01b0302191690836001600160a01b0316021790555060028054806104a4576104a46106da565b5f8281526020902081015f1990810180546001600160a01b03191690550190556104d1565b6001016103e2565b50600380545f190190556040516001600160a01b038416907f8f409e6d2a5a71ccff16036ebcb0b30a2afe9bd0dcfb4fe255c646fa86b6107a905f90a2505050565b61051b610550565b6001600160a01b03811661054457604051631e4fbdf760e01b81525f60048201526024016102b5565b61054d8161057c565b50565b5f546001600160a01b031633146101db5760405163118cdaa760e01b81523360048201526024016102b5565b5f80546001600160a01b038381166001600160a01b0319831681178455604051919092169283917f8be0079c531659141344cd1fd0a4f28419497f9722a3daafe3b4186f6b6457e09190a35050565b5f602082840312156105db575f80fd5b5035919050565b602080825282518282018190525f918401906040840190835b818110156106225783516001600160a01b03168352602093840193909201916001016105fb565b509095945050505050565b80356001600160a01b0381168114610643575f80fd5b919050565b5f60208284031215610658575f80fd5b6106618261062d565b9392505050565b5f8060408385031215610679575f80fd5b6106828361062d565b915060208301358015158114610696575f80fd5b809150509250929050565b634e487b7160e01b5f52603260045260245ffd5b818103818111156106d457634e487b7160e01b5f52601160045260245ffd5b92915050565b634e487b7160e01b5f52603160045260245ffdfea264697066735822122002dc94f2a06183ff2e5db37a01095e6780dbdeb2540f8523f10ac37e6ce5331e64736f6c634300081a0033","linkReferences":{}},"methodIdentifiers":{"getNominees()":"9636f67c","isNominee(address)":"a2064f45","nominate(address,bool)":"affd8db0","nominations(address)":"f95baf26","nomineesCount()":"980c4079","nomineesSorted(uint256)":"10253227","owner()":"8da5cb5b","renounceOwnership()":"715018a6","transferOwnership(address)":"f2fde38b"},"id":125}