{"abi":[{"type":"constructor","inputs":[{"name":"name_","type":"string","internalType":"string"},{"name":"uri_","type":"string","internalType":"string"},{"name":"maxCallDataLength_","type":"uint256","internalType":"uint256"},{"name":"maxReturnDataLength_","type":"uint256","internalType":"uint256"},{"name":"maxExecutionsLength_","type":"uint256","internalType":"uint256"}],"stateMutability":"nonpayable"},{"type":"function","name":"ADMIN_ROLE","inputs":[],"outputs":[{"name":"","type":"uint256","internalType":"uint256"}],"stateMutability":"view"},{"type":"function","name":"DENOMINATOR","inputs":[],"outputs":[{"name":"","type":"uint256","internalType":"uint256"}],"stateMutability":"view"},{"type":"function","name":"MAX_CALLDATA_LENGTH","inputs":[],"outputs":[{"name":"","type":"uint256","internalType":"uint256"}],"stateMutability":"view"},{"type":"function","name":"MAX_EXECUTIONS_LENGTH","inputs":[],"outputs":[{"name":"","type":"uint256","internalType":"uint256"}],"stateMutability":"view"},{"type":"function","name":"MAX_RETURN_DATA_LENGTH","inputs":[],"outputs":[{"name":"","type":"uint256","internalType":"uint256"}],"stateMutability":"view"},{"type":"function","name":"PUBLIC_ROLE","inputs":[],"outputs":[{"name":"","type":"uint256","internalType":"uint256"}],"stateMutability":"view"},{"type":"function","name":"adoptMandate","inputs":[{"name":"mandateInitData","type":"tuple","internalType":"struct PowersTypes.MandateInitData","components":[{"name":"nameDescription","type":"string","internalType":"string"},{"name":"targetMandate","type":"address","internalType":"address"},{"name":"config","type":"bytes","internalType":"bytes"},{"name":"conditions","type":"tuple","internalType":"struct PowersTypes.Conditions","components":[{"name":"allowedRole","type":"uint256","internalType":"uint256"},{"name":"votingPeriod","type":"uint32","internalType":"uint32"},{"name":"timelock","type":"uint32","internalType":"uint32"},{"name":"throttleExecution","type":"uint32","internalType":"uint32"},{"name":"needFulfilled","type":"uint16","internalType":"uint16"},{"name":"needNotFulfilled","type":"uint16","internalType":"uint16"},{"name":"quorum","type":"uint8","internalType":"uint8"},{"name":"succeedAt","type":"uint8","internalType":"uint8"}]}]}],"outputs":[{"name":"mandateId","type":"uint16","internalType":"uint16"}],"stateMutability":"nonpayable"},{"type":"function","name":"assignRole","inputs":[{"name":"roleId","type":"uint256","internalType":"uint256"},{"name":"account","type":"address","internalType":"address"}],"outputs":[],"stateMutability":"nonpayable"},{"type":"function","name":"blacklistAddress","inputs":[{"name":"account","type":"address","internalType":"address"},{"name":"blacklisted","type":"bool","internalType":"bool"}],"outputs":[],"stateMutability":"nonpayable"},{"type":"function","name":"canCallMandate","inputs":[{"name":"caller","type":"address","internalType":"address"},{"name":"mandateId","type":"uint16","internalType":"uint16"}],"outputs":[{"name":"","type":"bool","internalType":"bool"}],"stateMutability":"view"},{"type":"function","name":"cancel","inputs":[{"name":"mandateId","type":"uint16","internalType":"uint16"},{"name":"mandateCalldata","type":"bytes","internalType":"bytes"},{"name":"nonce","type":"uint256","internalType":"uint256"}],"outputs":[{"name":"","type":"uint256","internalType":"uint256"}],"stateMutability":"nonpayable"},{"type":"function","name":"castVote","inputs":[{"name":"actionId","type":"uint256","internalType":"uint256"},{"name":"support","type":"uint8","internalType":"uint8"}],"outputs":[],"stateMutability":"nonpayable"},{"type":"function","name":"castVoteWithReason","inputs":[{"name":"actionId","type":"uint256","internalType":"uint256"},{"name":"support","type":"uint8","internalType":"uint8"},{"name":"reason","type":"string","internalType":"string"}],"outputs":[],"stateMutability":"nonpayable"},{"type":"function","name":"closeConstitute","inputs":[],"outputs":[],"stateMutability":"nonpayable"},{"type":"function","name":"closeConstitute","inputs":[{"name":"newAdmin","type":"address","internalType":"address"}],"outputs":[],"stateMutability":"nonpayable"},{"type":"function","name":"constitute","inputs":[{"name":"constituentMandates","type":"tuple[]","internalType":"struct PowersTypes.MandateInitData[]","components":[{"name":"nameDescription","type":"string","internalType":"string"},{"name":"targetMandate","type":"address","internalType":"address"},{"name":"config","type":"bytes","internalType":"bytes"},{"name":"conditions","type":"tuple","internalType":"struct PowersTypes.Conditions","components":[{"name":"allowedRole","type":"uint256","internalType":"uint256"},{"name":"votingPeriod","type":"uint32","internalType":"uint32"},{"name":"timelock","type":"uint32","internalType":"uint32"},{"name":"throttleExecution","type":"uint32","internalType":"uint32"},{"name":"needFulfilled","type":"uint16","internalType":"uint16"},{"name":"needNotFulfilled","type":"uint16","internalType":"uint16"},{"name":"quorum","type":"uint8","internalType":"uint8"},{"name":"succeedAt","type":"uint8","internalType":"uint8"}]}]}],"outputs":[],"stateMutability":"nonpayable"},{"type":"function","name":"eip712Domain","inputs":[],"outputs":[{"name":"fields","type":"bytes1","internalType":"bytes1"},{"name":"name","type":"string","internalType":"string"},{"name":"version","type":"string","internalType":"string"},{"name":"chainId","type":"uint256","internalType":"uint256"},{"name":"verifyingContract","type":"address","internalType":"address"},{"name":"salt","type":"bytes32","internalType":"bytes32"},{"name":"extensions","type":"uint256[]","internalType":"uint256[]"}],"stateMutability":"view"},{"type":"function","name":"fulfill","inputs":[{"name":"mandateId","type":"uint16","internalType":"uint16"},{"name":"actionId","type":"uint256","internalType":"uint256"},{"name":"targets","type":"address[]","internalType":"address[]"},{"name":"values","type":"uint256[]","internalType":"uint256[]"},{"name":"calldatas","type":"bytes[]","internalType":"bytes[]"}],"outputs":[],"stateMutability":"nonpayable"},{"type":"function","name":"getActionCalldata","inputs":[{"name":"actionId","type":"uint256","internalType":"uint256"}],"outputs":[{"name":"callData","type":"bytes","internalType":"bytes"}],"stateMutability":"view"},{"type":"function","name":"getActionData","inputs":[{"name":"actionId","type":"uint256","internalType":"uint256"}],"outputs":[{"name":"mandateId","type":"uint16","internalType":"uint16"},{"name":"proposedAt","type":"uint48","internalType":"uint48"},{"name":"requestedAt","type":"uint48","internalType":"uint48"},{"name":"fulfilledAt","type":"uint48","internalType":"uint48"},{"name":"cancelledAt","type":"uint48","internalType":"uint48"},{"name":"caller","type":"address","internalType":"address"},{"name":"nonce","type":"uint256","internalType":"uint256"}],"stateMutability":"view"},{"type":"function","name":"getActionReturnData","inputs":[{"name":"actionId","type":"uint256","internalType":"uint256"},{"name":"index","type":"uint256","internalType":"uint256"}],"outputs":[{"name":"returnData","type":"bytes","internalType":"bytes"}],"stateMutability":"view"},{"type":"function","name":"getActionState","inputs":[{"name":"actionId","type":"uint256","internalType":"uint256"}],"outputs":[{"name":"","type":"uint8","internalType":"enum PowersTypes.ActionState"}],"stateMutability":"view"},{"type":"function","name":"getActionUri","inputs":[{"name":"actionId","type":"uint256","internalType":"uint256"}],"outputs":[{"name":"_uri","type":"string","internalType":"string"}],"stateMutability":"view"},{"type":"function","name":"getActionVoteData","inputs":[{"name":"actionId","type":"uint256","internalType":"uint256"}],"outputs":[{"name":"voteStart","type":"uint48","internalType":"uint48"},{"name":"voteDuration","type":"uint32","internalType":"uint32"},{"name":"voteEnd","type":"uint256","internalType":"uint256"},{"name":"againstVotes","type":"uint32","internalType":"uint32"},{"name":"forVotes","type":"uint32","internalType":"uint32"},{"name":"abstainVotes","type":"uint32","internalType":"uint32"}],"stateMutability":"view"},{"type":"function","name":"getAdoptedMandate","inputs":[{"name":"mandateId","type":"uint16","internalType":"uint16"}],"outputs":[{"name":"mandate","type":"address","internalType":"address"},{"name":"mandateHash","type":"bytes32","internalType":"bytes32"},{"name":"active","type":"bool","internalType":"bool"}],"stateMutability":"view"},{"type":"function","name":"getAmountRoleHolders","inputs":[{"name":"roleId","type":"uint256","internalType":"uint256"}],"outputs":[{"name":"amountMembers","type":"uint256","internalType":"uint256"}],"stateMutability":"view"},{"type":"function","name":"getConditions","inputs":[{"name":"mandateId","type":"uint16","internalType":"uint16"}],"outputs":[{"name":"conditions","type":"tuple","internalType":"struct PowersTypes.Conditions","components":[{"name":"allowedRole","type":"uint256","internalType":"uint256"},{"name":"votingPeriod","type":"uint32","internalType":"uint32"},{"name":"timelock","type":"uint32","internalType":"uint32"},{"name":"throttleExecution","type":"uint32","internalType":"uint32"},{"name":"needFulfilled","type":"uint16","internalType":"uint16"},{"name":"needNotFulfilled","type":"uint16","internalType":"uint16"},{"name":"quorum","type":"uint8","internalType":"uint8"},{"name":"succeedAt","type":"uint8","internalType":"uint8"}]}],"stateMutability":"view"},{"type":"function","name":"getLatestFulfillment","inputs":[{"name":"mandateId","type":"uint16","internalType":"uint16"}],"outputs":[{"name":"latestFulfillment","type":"uint48","internalType":"uint48"}],"stateMutability":"view"},{"type":"function","name":"getMandateActionAtIndex","inputs":[{"name":"mandateId","type":"uint16","internalType":"uint16"},{"name":"index","type":"uint256","internalType":"uint256"}],"outputs":[{"name":"actionId","type":"uint256","internalType":"uint256"}],"stateMutability":"view"},{"type":"function","name":"getMandateCounter","inputs":[],"outputs":[{"name":"","type":"uint16","internalType":"uint16"}],"stateMutability":"view"},{"type":"function","name":"getQuantityMandateActions","inputs":[{"name":"mandateId","type":"uint16","internalType":"uint16"}],"outputs":[{"name":"quantityMandateActions","type":"uint256","internalType":"uint256"}],"stateMutability":"view"},{"type":"function","name":"getRoleHolderAtIndex","inputs":[{"name":"roleId","type":"uint256","internalType":"uint256"},{"name":"index","type":"uint256","internalType":"uint256"}],"outputs":[{"name":"account","type":"address","internalType":"address"}],"stateMutability":"view"},{"type":"function","name":"getRoleLabel","inputs":[{"name":"roleId","type":"uint256","internalType":"uint256"}],"outputs":[{"name":"label","type":"string","internalType":"string"}],"stateMutability":"view"},{"type":"function","name":"getTreasury","inputs":[],"outputs":[{"name":"","type":"address","internalType":"address payable"}],"stateMutability":"view"},{"type":"function","name":"hasRoleSince","inputs":[{"name":"account","type":"address","internalType":"address"},{"name":"roleId","type":"uint256","internalType":"uint256"}],"outputs":[{"name":"since","type":"uint48","internalType":"uint48"}],"stateMutability":"view"},{"type":"function","name":"hasVoted","inputs":[{"name":"actionId","type":"uint256","internalType":"uint256"},{"name":"account","type":"address","internalType":"address"}],"outputs":[{"name":"","type":"bool","internalType":"bool"}],"stateMutability":"view"},{"type":"function","name":"isBlacklisted","inputs":[{"name":"account","type":"address","internalType":"address"}],"outputs":[{"name":"","type":"bool","internalType":"bool"}],"stateMutability":"view"},{"type":"function","name":"labelRole","inputs":[{"name":"roleId","type":"uint256","internalType":"uint256"},{"name":"label","type":"string","internalType":"string"}],"outputs":[],"stateMutability":"nonpayable"},{"type":"function","name":"mandateCounter","inputs":[],"outputs":[{"name":"","type":"uint16","internalType":"uint16"}],"stateMutability":"view"},{"type":"function","name":"name","inputs":[],"outputs":[{"name":"","type":"string","internalType":"string"}],"stateMutability":"view"},{"type":"function","name":"propose","inputs":[{"name":"mandateId","type":"uint16","internalType":"uint16"},{"name":"mandateCalldata","type":"bytes","internalType":"bytes"},{"name":"nonce","type":"uint256","internalType":"uint256"},{"name":"uriAction","type":"string","internalType":"string"}],"outputs":[{"name":"actionId","type":"uint256","internalType":"uint256"}],"stateMutability":"nonpayable"},{"type":"function","name":"request","inputs":[{"name":"mandateId","type":"uint16","internalType":"uint16"},{"name":"mandateCalldata","type":"bytes","internalType":"bytes"},{"name":"nonce","type":"uint256","internalType":"uint256"},{"name":"uriAction","type":"string","internalType":"string"}],"outputs":[{"name":"actionId","type":"uint256","internalType":"uint256"}],"stateMutability":"nonpayable"},{"type":"function","name":"revokeMandate","inputs":[{"name":"mandateId","type":"uint16","internalType":"uint16"}],"outputs":[],"stateMutability":"nonpayable"},{"type":"function","name":"revokeRole","inputs":[{"name":"roleId","type":"uint256","internalType":"uint256"},{"name":"account","type":"address","internalType":"address"}],"outputs":[],"stateMutability":"nonpayable"},{"type":"function","name":"setTreasury","inputs":[{"name":"newTreasury","type":"address","internalType":"address payable"}],"outputs":[],"stateMutability":"nonpayable"},{"type":"function","name":"setUri","inputs":[{"name":"newUri","type":"string","internalType":"string"}],"outputs":[],"stateMutability":"nonpayable"},{"type":"function","name":"uri","inputs":[],"outputs":[{"name":"","type":"string","internalType":"string"}],"stateMutability":"view"},{"type":"function","name":"version","inputs":[],"outputs":[{"name":"","type":"string","internalType":"string"}],"stateMutability":"pure"},{"type":"event","name":"ActionFulfilled","inputs":[{"name":"mandateId","type":"uint16","indexed":true,"internalType":"uint16"},{"name":"actionId","type":"uint256","indexed":true,"internalType":"uint256"},{"name":"targets","type":"address[]","indexed":false,"internalType":"address[]"},{"name":"values","type":"uint256[]","indexed":false,"internalType":"uint256[]"},{"name":"calldatas","type":"bytes[]","indexed":false,"internalType":"bytes[]"}],"anonymous":false},{"type":"event","name":"ActionRequested","inputs":[{"name":"caller","type":"address","indexed":true,"internalType":"address"},{"name":"mandateId","type":"uint16","indexed":true,"internalType":"uint16"},{"name":"mandateCalldata","type":"bytes","indexed":false,"internalType":"bytes"},{"name":"nonce","type":"uint256","indexed":false,"internalType":"uint256"},{"name":"description","type":"string","indexed":false,"internalType":"string"}],"anonymous":false},{"type":"event","name":"BlacklistSet","inputs":[{"name":"account","type":"address","indexed":true,"internalType":"address"},{"name":"blacklisted","type":"bool","indexed":true,"internalType":"bool"}],"anonymous":false},{"type":"event","name":"EIP712DomainChanged","inputs":[],"anonymous":false},{"type":"event","name":"FundsReceived","inputs":[{"name":"value","type":"uint256","indexed":false,"internalType":"uint256"},{"name":"sender","type":"address","indexed":false,"internalType":"address"}],"anonymous":false},{"type":"event","name":"MandateAdopted","inputs":[{"name":"mandateId","type":"uint16","indexed":true,"internalType":"uint16"}],"anonymous":false},{"type":"event","name":"MandateRevoked","inputs":[{"name":"mandateId","type":"uint16","indexed":true,"internalType":"uint16"}],"anonymous":false},{"type":"event","name":"Powers__Initialized","inputs":[{"name":"contractAddress","type":"address","indexed":false,"internalType":"address"},{"name":"name","type":"string","indexed":false,"internalType":"string"},{"name":"uri","type":"string","indexed":false,"internalType":"string"}],"anonymous":false},{"type":"event","name":"ProposedActionCancelled","inputs":[{"name":"actionId","type":"uint256","indexed":true,"internalType":"uint256"}],"anonymous":false},{"type":"event","name":"ProposedActionCreated","inputs":[{"name":"actionId","type":"uint256","indexed":true,"internalType":"uint256"},{"name":"caller","type":"address","indexed":true,"internalType":"address"},{"name":"mandateId","type":"uint16","indexed":true,"internalType":"uint16"},{"name":"signature","type":"string","indexed":false,"internalType":"string"},{"name":"executeCalldata","type":"bytes","indexed":false,"internalType":"bytes"},{"name":"voteStart","type":"uint256","indexed":false,"internalType":"uint256"},{"name":"voteEnd","type":"uint256","indexed":false,"internalType":"uint256"},{"name":"nonce","type":"uint256","indexed":false,"internalType":"uint256"},{"name":"description","type":"string","indexed":false,"internalType":"string"}],"anonymous":false},{"type":"event","name":"RoleLabel","inputs":[{"name":"roleId","type":"uint256","indexed":true,"internalType":"uint256"},{"name":"label","type":"string","indexed":false,"internalType":"string"}],"anonymous":false},{"type":"event","name":"RoleSet","inputs":[{"name":"roleId","type":"uint256","indexed":true,"internalType":"uint256"},{"name":"account","type":"address","indexed":true,"internalType":"address"},{"name":"access","type":"bool","indexed":true,"internalType":"bool"}],"anonymous":false},{"type":"event","name":"VoteCast","inputs":[{"name":"account","type":"address","indexed":true,"internalType":"address"},{"name":"actionId","type":"uint256","indexed":true,"internalType":"uint256"},{"name":"support","type":"uint8","indexed":true,"internalType":"uint8"},{"name":"reason","type":"string","indexed":false,"internalType":"string"}],"anonymous":false},{"type":"error","name":"InvalidShortString","inputs":[]},{"type":"error","name":"Powers__ActionAlreadyFulfilled","inputs":[]},{"type":"error","name":"Powers__ActionAlreadyInitiated","inputs":[]},{"type":"error","name":"Powers__ActionCancelled","inputs":[]},{"type":"error","name":"Powers__ActionNotProposed","inputs":[]},{"type":"error","name":"Powers__ActionNotRequested","inputs":[]},{"type":"error","name":"Powers__AddressBlacklisted","inputs":[]},{"type":"error","name":"Powers__AlreadyCastVote","inputs":[]},{"type":"error","name":"Powers__CalldataTooLong","inputs":[]},{"type":"error","name":"Powers__CallerNotTargetMandate","inputs":[]},{"type":"error","name":"Powers__CannotAddZeroAddress","inputs":[]},{"type":"error","name":"Powers__CannotCallMandate","inputs":[]},{"type":"error","name":"Powers__CannotSetPublicRole","inputs":[]},{"type":"error","name":"Powers__CannotSetZeroAddress","inputs":[]},{"type":"error","name":"Powers__ConstituteClosed","inputs":[]},{"type":"error","name":"Powers__ConstituteOpen","inputs":[]},{"type":"error","name":"Powers__ConstitutionAlreadyExecuted","inputs":[]},{"type":"error","name":"Powers__ExecutionArrayTooLong","inputs":[]},{"type":"error","name":"Powers__ExternalContractBlacklisted","inputs":[]},{"type":"error","name":"Powers__IncorrectInterface","inputs":[{"name":"targetMandate","type":"address","internalType":"address"}]},{"type":"error","name":"Powers__InvalidAddress","inputs":[]},{"type":"error","name":"Powers__InvalidCallData","inputs":[]},{"type":"error","name":"Powers__InvalidIndex","inputs":[]},{"type":"error","name":"Powers__InvalidLabel","inputs":[]},{"type":"error","name":"Powers__InvalidMaxCallDataLength","inputs":[]},{"type":"error","name":"Powers__InvalidMaxExecutionsLength","inputs":[]},{"type":"error","name":"Powers__InvalidName","inputs":[]},{"type":"error","name":"Powers__InvalidReturnCallDataLength","inputs":[]},{"type":"error","name":"Powers__InvalidVoteType","inputs":[]},{"type":"error","name":"Powers__LabelTooLong","inputs":[]},{"type":"error","name":"Powers__LockedRole","inputs":[]},{"type":"error","name":"Powers__MandateFulfillCallFailed","inputs":[]},{"type":"error","name":"Powers__MandateNotActive","inputs":[]},{"type":"error","name":"Powers__MandateRequestFailed","inputs":[]},{"type":"error","name":"Powers__NoMembersInRole","inputs":[]},{"type":"error","name":"Powers__NoVoteNeeded","inputs":[]},{"type":"error","name":"Powers__NotAContract","inputs":[]},{"type":"error","name":"Powers__NotProposerAction","inputs":[]},{"type":"error","name":"Powers__OnlyAdmin","inputs":[]},{"type":"error","name":"Powers__OnlyPowers","inputs":[]},{"type":"error","name":"Powers__PayableNotEnabled","inputs":[]},{"type":"error","name":"Powers__ProposedActionNotActive","inputs":[]},{"type":"error","name":"Powers__UnexpectedActionState","inputs":[]},{"type":"error","name":"Powers__VoteWithPublicRoleDisallowed","inputs":[]},{"type":"error","name":"StringTooLong","inputs":[{"name":"str","type":"string","internalType":"string"}]}],"bytecode":{"object":"0x6101c06040526006805461ffff1916600117905534801561001e575f80fd5b50604051614a1a380380614a1a83398101604081905261003d91610602565b8461005e604080518082019091526003815262302e3560e81b602082015290565b610068825f61020d565b6101205261007781600161020d565b61014052815160208084019190912060e052815190820120610100524660a05261010360e05161010051604080517f8b73c3c69bb8fe3d512ecc4cf759cc79239f7b179b0ffacaa9a75d522b39400f60208201529081019290925260608201524660808201523060a08201525f9060c00160405160208183030381529060405280519060200120905090565b60805250503060c05284515f0361012d57604051634acb0e6d60e01b815260040160405180910390fd5b825f0361014d57604051631c58c0e160e01b815260040160405180910390fd5b815f0361016d5760405163a19bdd3b60e01b815260040160405180910390fd5b805f0361018d57604051638a2b742f60e01b815260040160405180910390fd5b6101995f33600161023f565b60076101a58682610704565b5060086101b28582610704565b506101608390526101808290526101a08190526040517f8e09415123fab1f9e22246686c8d24ad9f84c70288cd5fa338213bccd3c5fb76906101fb90309060079060089061083d565b60405180910390a15050505050610936565b5f602083511015610228576102218361051f565b9050610239565b816102338482610704565b5060ff90505b92915050565b5f1983036102605760405163a1dd2b9360e01b815260040160405180910390fd5b6001600160a01b038216610287576040516329f62b5d60e11b815260040160405180910390fd5b5f8381526004602090815260408083206001600160a01b0386168452909152902054158180156102b45750805b1561035c575f8481526004602052604090206001908101546102d591610890565b5f8581526004602081815260408084206001600160a01b038981168087528285528387209790975593835281518083019092529481524365ffffffffffff9081168284019081526001968701805497880181558652929094209051940180549151949092166001600160d01b031990911617600160a01b93909216929092021790556104df565b81158015610368575080155b156104df575f84815260046020526040812060019081015461038a91906108a3565b5f86815260046020526040812060010180549293509091839081106103b1576103b16108b6565b5f918252602080832060408051808201825293909101546001600160a01b038082168552600160a01b90910465ffffffffffff16848401528a85526004808452828620918b16865281845291852054948b90529152909250829060019081019061041b90846108a3565b8154811061042b5761042b6108b6565b5f91825260208083208451920180549482015165ffffffffffff16600160a01b026001600160d01b03199095166001600160a01b039093169290921793909317905588815260049091526040902060010180548061048b5761048b6108ca565b5f82815260208082205f19908401810180546001600160d01b031916905590920190925588825260048152604080832094516001600160a01b03908116845294909152808220929092559186168252812055505b811515836001600160a01b0316857f294507a8f5830b538faef39fbdd28f1164f27c8338a32fc7b47ddf82e4c8d9e460405160405180910390a450505050565b5f80829050601f81511115610552578260405163305a27a960e01b815260040161054991906108de565b60405180910390fd5b805161055d82610913565b179392505050565b634e487b7160e01b5f52604160045260245ffd5b5f82601f830112610588575f80fd5b81516001600160401b038111156105a1576105a1610565565b604051601f8201601f19908116603f011681016001600160401b03811182821017156105cf576105cf610565565b6040528181528382016020018510156105e6575f80fd5b8160208501602083015e5f918101602001919091529392505050565b5f805f805f60a08688031215610616575f80fd5b85516001600160401b0381111561062b575f80fd5b61063788828901610579565b602088015190965090506001600160401b03811115610654575f80fd5b61066088828901610579565b60408801516060890151608090990151979a919950979695509350505050565b600181811c9082168061069457607f821691505b6020821081036106b257634e487b7160e01b5f52602260045260245ffd5b50919050565b601f8211156106ff57805f5260205f20601f840160051c810160208510156106dd5750805b601f840160051c820191505b818110156106fc575f81556001016106e9565b50505b505050565b81516001600160401b0381111561071d5761071d610565565b6107318161072b8454610680565b846106b8565b6020601f821160018114610763575f831561074c5750848201515b5f19600385901b1c1916600184901b1784556106fc565b5f84815260208120601f198516915b828110156107925787850151825560209485019460019092019101610772565b50848210156107af57868401515f19600387901b60f8161c191681555b50505050600190811b01905550565b5f81546107ca81610680565b8085526001821680156107e4576001811461080057610834565b60ff1983166020870152602082151560051b8701019350610834565b845f5260205f205f5b8381101561082b5781546020828a010152600182019150602081019050610809565b87016020019450505b50505092915050565b6001600160a01b03841681526060602082018190525f90610860908301856107be565b828103604084015261087281856107be565b9695505050505050565b634e487b7160e01b5f52601160045260245ffd5b808201808211156102395761023961087c565b818103818111156102395761023961087c565b634e487b7160e01b5f52603260045260245ffd5b634e487b7160e01b5f52603160045260245ffd5b602081525f82518060208401528060208501604085015e5f604082850101526040601f19601f83011684010191505092915050565b805160208083015191908110156106b2575f1960209190910360031b1b16919050565b60805160a05160c05160e05161010051610120516101405161016051610180516101a0516140616109b95f395f81816108b70152610c6701525f81816106f70152610e8701525f818161084401528181610cb20152818161132a0152611cc801525f612b8101525f612b5001525f50505f50505f50505f50505f50506140615ff3fe608060405234801561000f575f80fd5b506004361061030f575f3560e01c80637b3c71d31161019d578063cc5812cf116100e8578063edfd2e8711610093578063f6226e7c1161006e578063f6226e7c146108b2578063fc2d96d0146108d9578063fe575a87146108ec575f80fd5b8063edfd2e8714610866578063f0f442601461088c578063f2a0bb751461089f575f80fd5b8063eac989f8116100c3578063eac989f814610824578063ebef6d971461082c578063edf2a5961461083f575f80fd5b8063cc5812cf146107f0578063d902bf3a14610803578063e88efe3514610816575f80fd5b806393d7dae511610148578063b367cac011610123578063b367cac0146107a8578063b4324dd3146107bb578063b4497115146107dd575f80fd5b806393d7dae51461076f5780639b642de114610782578063ab776bf214610795575f80fd5b806384b0196e1161017857806384b0196e146107395780638a4359e014610754578063918f867414610767575f80fd5b80637b3c71d3146106df5780637c1b5539146106f2578063831af37914610719575f80fd5b80633b19e84a1161025d57806354fd4d5011610208578063685b824a116101e3578063685b824a146106b25780637258883f146106c557806375b238fc146106d8575f80fd5b806354fd4d5014610660578063567813881461067f578063666ca2d614610692575f80fd5b80634385963211610238578063438596321461053c578063455a4396146105885780634583476b1461059b575f80fd5b80633b19e84a146105105780633ca7c02a1461052157806341bd157d14610529575f80fd5b80631031bdb0116102bd5780631d0b19e7116102985780631d0b19e7146104975780632179e04e146104aa5780632e2d8253146104fd575f80fd5b80631031bdb0146103c157806312561b1a1461044b578063199093bb1461046c575f80fd5b806306fdde03116102ed57806306fdde031461039c5780630d7abeaa146103a45780630de6a601146103ae575f80fd5b80630398f05f14610313578063040b8c241461033c578063055dbe1014610381575b5f80fd5b61032661032136600461317b565b610917565b60405161033391906131c0565b60405180910390f35b61036a61034a3660046131e3565b61ffff165f9081526003602052604090206005015465ffffffffffff1690565b60405165ffffffffffff9091168152602001610333565b60065461ffff165b60405161ffff9091168152602001610333565b6103266109b9565b6103ac610a45565b005b6103ac6103bc366004613244565b610a58565b6104246103cf3660046131e3565b61ffff165f8181526003602081815260409283902080549201548351308184015280850195909552835180860385018152606090950190935283519301929092206001600160a01b039092169260ff90911690565b604080516001600160a01b0390941684526020840192909252151590820152606001610333565b61045e61045936600461333a565b610f68565b604051908152602001610333565b61047f61047a366004613390565b61104e565b6040516001600160a01b039091168152602001610333565b6103ac6104a53660046133c4565b6110bd565b6104bd6104b836600461317b565b6110d4565b6040805165ffffffffffff909716875263ffffffff95861660208801528601939093529083166060850152821660808401521660a082015260c001610333565b61045e61050b3660046134fb565b611159565b6009546001600160a01b031661047f565b61045e5f1981565b610326610537366004613390565b611383565b61057861054a3660046133c4565b5f8281526002602090815260408083206001600160a01b038516845260070190915290205460ff1692915050565b6040519015158152602001610333565b6103ac61059636600461358b565b611440565b61060d6105a936600461317b565b5f908152600260208190526040909120805491810154600390910154600160f01b830461ffff169365ffffffffffff8085169466010000000000008104821694600160601b8204831694600160901b909204909216926001600160a01b0390921691565b6040805161ffff909816885265ffffffffffff96871660208901529486169487019490945291841660608601529290921660808401526001600160a01b0390911660a083015260c082015260e001610333565b604080518082019091526003815262302e3560e81b6020820152610326565b6103ac61068d3660046135c7565b61149b565b6106a56106a036600461317b565b6114b5565b6040516103339190613605565b6103ac6106c03660046133c4565b611604565b6103ac6106d336600461362b565b611651565b61045e5f81565b6103ac6106ed366004613646565b611665565b61045e7f000000000000000000000000000000000000000000000000000000000000000081565b61072c6107273660046131e3565b6116ac565b604051610333919061369c565b610741611787565b6040516103339796959493929190613734565b61045e6107623660046137ca565b6117c9565b61045e606481565b61057861077d3660046137f2565b611836565b6103ac61079036600461381c565b611870565b6103ac6107a3366004613856565b611884565b6103ac6107b63660046131e3565b611952565b61045e6107c936600461317b565b5f9081526004602052604090206001015490565b6103896107eb3660046139f2565b6119dc565b61036a6107fe366004613a24565b611a3a565b61032661081136600461317b565b611abb565b6006546103899061ffff1681565b610326611ada565b61045e61083a3660046134fb565b611ae7565b61045e7f000000000000000000000000000000000000000000000000000000000000000081565b61045e6108743660046131e3565b61ffff165f9081526003602052604090206004015490565b6103ac61089a36600461362b565b612007565b6103266108ad36600461317b565b612058565b61045e7f000000000000000000000000000000000000000000000000000000000000000081565b6103ac6108e7366004613a40565b612077565b6105786108fa36600461362b565b6001600160a01b03165f9081526005602052604090205460ff1690565b5f81815260046020526040902060020180546060919061093690613b01565b80601f016020809104026020016040519081016040528092919081815260200182805461096290613b01565b80156109ad5780601f10610984576101008083540402835291602001916109ad565b820191905f5260205f20905b81548152906001019060200180831161099057829003601f168201915b50505050509050919050565b600780546109c690613b01565b80601f01602080910402602001604051908101604052809291908181526020018280546109f290613b01565b8015610a3d5780601f10610a1457610100808354040283529160200191610a3d565b820191905f5260205f20905b815481529060010190602001808311610a2057829003601f168201915b505050505081565b610a4d612117565b610a5633612152565b565b87610a62816121a0565b61ffff808a165f908152600360208181526040808420815160a0808201845282546001600160a01b0316825283516101008101855260018401548152600284015463ffffffff808216838901526401000000008204811683880152600160401b820416606080840191909152600160601b82048b166080840152600160701b8204909a169282019290925260ff600160801b8304811660c0830152600160881b909204821660e08201528286015294820154909416151584830152600481018054835181860281018601909452808452959694959194860193909190830182828015610b6b57602002820191905f5260205f20905b815481526020019060010190808311610b57575b50505091835250506005919091015465ffffffffffff166020909101526040810151909150610bad57604051632e53afcd60e01b815260040160405180910390fd5b80516001600160a01b03163314610bd757604051635574892960e11b815260040160405180910390fd5b610be0896121da565b610bfd576040516301dd1d1560e71b815260040160405180910390fd5b5f89815260026020526040902054600160601b900465ffffffffffff1615610c385760405163a517239560e01b815260040160405180910390fd5b8685141580610c475750868314155b15610c655760405163dbf15fa560e01b815260040160405180910390fd5b7f0000000000000000000000000000000000000000000000000000000000000000871115610ca65760405163d0b6a17960e01b815260040160405180910390fd5b5f5b87811015610d66577f0000000000000000000000000000000000000000000000000000000000000000858583818110610ce357610ce3613b39565b9050602002810190610cf59190613b4d565b90501115610d1657604051631c3bc5e360e31b815260040160405180910390fd5b610d40898983818110610d2b57610d2b613b39565b90506020020160208101906108fa919061362b565b15610d5e576040516334d52f6b60e01b815260040160405180910390fd5b600101610ca8565b505f898152600260205260408120805471ffffffffffff0000000000000000000000001916600160601b4365ffffffffffff16021790555b87811015610f2e575f808a8a84818110610dba57610dba613b39565b9050602002016020810190610dcf919061362b565b6001600160a01b0316898985818110610dea57610dea613b39565b90506020020135888886818110610e0357610e03613b39565b9050602002810190610e159190613b4d565b604051610e23929190613b90565b5f6040518083038185875af1925050503d805f8114610e5d576040519150601f19603f3d011682016040523d82523d5f602084013e610e62565b606091505b509150915081610e8557604051631d8fb90d60e21b815260040160405180910390fd5b7f0000000000000000000000000000000000000000000000000000000000000000815111610edd575f8c815260026020908152604082206005018054600181018255908352912001610ed78282613beb565b50610f24565b5f8c815260026020908152604080832081518084018590528251808203850181529083019092526005018054600181018255908452919092200190610f229082613beb565b505b5050600101610d9e565b5050505061ffff969096165f908152600360205260409020600501805465ffffffffffff19164365ffffffffffff16179055505050505050565b5f84610f73816121a0565b604051630b704dbd60e11b81525f9073__$b8401669eb6e3c34470049924d5a7c9ef9$__906316e09b7a90610fb2908a908a908a908a90600401613cce565b602060405180830381865af4158015610fcd573d5f803e3d5ffd5b505050506040513d601f19601f82011682018060405250810190610ff19190613cfc565b5f81815260026020819052604090912001549091506001600160a01b0316336001600160a01b03161461103757604051637365858560e01b815260040160405180910390fd5b6110438787878761222e565b979650505050505050565b5f82815260046020526040812060010154821061107e5760405163472e61bd60e01b815260040160405180910390fd5b5f8381526004602052604090206001018054839081106110a0576110a0613b39565b5f918252602090912001546001600160a01b031690505b92915050565b6110c56123bc565b6110d082825f6123dc565b5050565b5f81815260026020526040812080546001820154839283928392839283929091600160c01b90910465ffffffffffff169063ffffffff166111158183613d27565b60019390930154919a90995065ffffffffffff909216975063ffffffff640100000000820481169750600160401b820481169650600160601b909104169350915050565b5f85611164816121a0565b600954600160a01b900460ff1661118e57604051630889b5b960e31b815260040160405180910390fd5b61ffff8088165f908152600360208181526040808420815160a0808201845282546001600160a01b0316825283516101008101855260018401548152600284015463ffffffff808216838901526401000000008204811683880152600160401b820416606080840191909152600160601b82048b166080840152600160701b8204909a169282019290925260ff600160801b8304811660c0830152600160881b909204821660e0820152828601529482015490941615158483015260048101805483518186028101860190945280845295969495919486019390919083018282801561129757602002820191905f5260205f20905b815481526020019060010190808311611283575b50505091835250506005919091015465ffffffffffff1660209091015260408101519091506112d957604051632e53afcd60e01b815260040160405180910390fd5b6112e4335b89611836565b61130157604051637079d1b960e11b815260040160405180910390fd5b61130a336108fa565b15611328576040516334d52f6b60e01b815260040160405180910390fd5b7f000000000000000000000000000000000000000000000000000000000000000086111561136957604051631c3bc5e360e31b815260040160405180910390fd5b6113773389898989896126bc565b98975050505050505050565b5f828152600260205260409020600501805460609190839081106113a9576113a9613b39565b905f5260205f200180546113bc90613b01565b80601f01602080910402602001604051908101604052809291908181526020018280546113e890613b01565b80156114335780601f1061140a57610100808354040283529160200191611433565b820191905f5260205f20905b81548152906001019060200180831161141657829003601f168201915b5050505050905092915050565b6114486123bc565b6001600160a01b0382165f81815260056020526040808220805460ff191685151590811790915590519092917f921341769c2075d1ae425396063d5ab65ff5006c4bc0bd0821e50ce51fb6012391a35050565b6110d082338360405180602001604052805f81525061291f565b5f818152600260205260408120805465ffffffffffff161580156114ea575080546601000000000000900465ffffffffffff16155b801561150457508054600160601b900465ffffffffffff16155b801561151e57508054600160901b900465ffffffffffff16155b1561152b57505f92915050565b8054600160601b900465ffffffffffff161561154a5750600792915050565b8054600160901b900465ffffffffffff16156115695750600292915050565b80546601000000000000900465ffffffffffff161561158b5750600692915050565b600181015481545f916115b59163ffffffff90911690600160c01b900465ffffffffffff16613d27565b65ffffffffffff1690504381106115d0575060039392505050565b6115d984612a2e565b15806115eb57506115e984612ace565b155b156115fa575060049392505050565b5060059392505050565b61160c6123bc565b6001600160a01b0381165f9081526005602052604090205460ff1615611645576040516334d52f6b60e01b815260040160405180910390fd5b6110d0828260016123dc565b611659612117565b61166281612152565b50565b6116a684338585858080601f0160208091040260200160405190810160405280939291908181526020018383808284375f9201919091525061291f92505050565b50505050565b60408051610100810182525f80825260208201819052918101829052606081018290526080810182905260a0810182905260c0810182905260e08101919091525061ffff9081165f908152600360209081526040918290208251610100810184526001820154815260029091015463ffffffff808216938301939093526401000000008104831693820193909352600160401b83049091166060820152600160601b820483166080820152600160701b820490921660a083015260ff600160801b8204811660c0840152600160881b9091041660e082015290565b5f6060805f805f6060611798612b49565b6117a0612b7a565b604080515f80825260208201909252600f60f81b9b939a50919850469750309650945092509050565b61ffff82165f9081526003602052604081206004015482106117fe5760405163472e61bd60e01b815260040160405180910390fd5b61ffff83165f90815260036020526040902060040180548390811061182557611825613b39565b905f5260205f200154905092915050565b5f80611841836116ac565b5190505f61184f8583611a3a565b905065ffffffffffff811615158061186757505f1982145b95945050505050565b6118786123bc565b60086110d08282613beb565b61188c6123bc565b81158061189957505f1982145b156118b7576040516329939fd360e21b815260040160405180910390fd5b80515f036118d8576040516333a0807f60e21b815260040160405180910390fd5b60ff815111156118fb576040516350cc0e8d60e01b815260040160405180910390fd5b5f8281526004602052604090206002016119158282613beb565b50817f4c6d3d4a776b1458bbd518e75903a3f27a0c6f4597b10882784aa64769d56c718260405161194691906131c0565b60405180910390a25050565b61195a6123bc565b61ffff81165f9081526003602081905260408220015460ff161515900361199457604051632e53afcd60e01b815260040160405180910390fd5b61ffff81165f818152600360208190526040808320909101805460ff19169055517ffb1d94dcf467f70febf412166aaa551737afd946ba6a4b4eac970aaf28a7e74f9190a250565b5f6119e56123bc565b6119ee82612ba7565b600654909150611a049060019061ffff16613d45565b61ffff167f284812f41d73696d76ff026c35ebc1a8e8bf24544551c55dd0877334dca88a5660405160405180910390a25b919050565b5f8181526004602090815260408083206001600160a01b0386168452909152812054808203611a6c575f9150506110b7565b5f838152600460205260409020600190810190611a899083613d5f565b81548110611a9957611a99613b39565b5f91825260209091200154600160a01b900465ffffffffffff16949350505050565b5f81815260026020526040902060040180546060919061093690613b01565b600880546109c690613b01565b5f85611af2816121a0565b600954600160a01b900460ff16611b1c57604051630889b5b960e31b815260040160405180910390fd5b604051630b704dbd60e11b815273__$b8401669eb6e3c34470049924d5a7c9ef9$__906316e09b7a90611b59908a908a908a908a90600401613cce565b602060405180830381865af4158015611b74573d5f803e3d5ffd5b505050506040513d601f19601f82011682018060405250810190611b989190613cfc565b61ffff8089165f908152600360208181526040808420815160a0808201845282546001600160a01b0316825283516101008101855260018401548152600284015463ffffffff808216838901526401000000008204811683880152600160401b820416606080840191909152600160601b82048b166080840152600160701b8204909a169282019290925260ff600160801b8304811660c0830152600160881b909204821660e08201528286015294820154909416151584830152600481018054835181860281018601909452808452979950949693959094908601939192909190830182828015611ca757602002820191905f5260205f20905b815481526020019060010190808311611c93575b50505091835250506005919091015465ffffffffffff1660209091015290507f0000000000000000000000000000000000000000000000000000000000000000861115611d0757604051631c3bc5e360e31b815260040160405180910390fd5b611d10336108fa565b15611d2e576040516334d52f6b60e01b815260040160405180910390fd5b611d37336112de565b611d5457604051637079d1b960e11b815260040160405180910390fd5b611d5d836121da565b15611d7b5760405163fc0e49ff60e01b815260040160405180910390fd5b5f83815260026020526040902054600160901b900465ffffffffffff1615611db657604051632ec3fe1560e11b815260040160405180910390fd5b6080810151604051633881b32960e01b815273__$b8401669eb6e3c34470049924d5a7c9ef9$__91633881b32991611dfa918c918c918c9130918d91600401613d72565b5f6040518083038186803b158015611e10575f80fd5b505af4158015611e22573d5f803e3d5ffd5b5050505f84815260026020526040812054600160f01b900461ffff1690039050611e6f5761ffff88165f908152600360209081526040822060040180546001810182559083529120018390555b5f838152600260205260409020336002820180546001600160a01b0319166001600160a01b039290921691909117905580547dffffffffffffffffffffffffffffffffffff000000000000ffffffffffff16600160f01b61ffff8b16026bffffffffffff00000000000019161766010000000000004365ffffffffffff160217815560048101611f00888a83613dbe565b5060068101611f0f8682613beb565b506003810186905581516040516326a8b78760e11b81525f916001600160a01b031690634d516f0e90611f4e9033908e908e908e908e90600401613e78565b6020604051808303815f875af1158015611f6a573d5f803e3d5ffd5b505050506040513d601f19601f82011682018060405250810190611f8e9190613eb6565b905080611fae5760405163382654b960e21b815260040160405180910390fd5b61ffff8a16336001600160a01b03167f98e1e52af9c2155b4c2b4844cdccf64c85cb13dd804231d177ef6fea4325d4058b8b8b8b604051611ff29493929190613ed1565b60405180910390a35050505095945050505050565b61200f6123bc565b6001600160a01b03811661203657604051636e7e8feb60e11b815260040160405180910390fd5b600980546001600160a01b0319166001600160a01b0392909216919091179055565b5f81815260026020526040902060060180546060919061093690613b01565b61207f612117565b600954600160a01b900460ff16156120aa576040516315ea064b60e31b815260040160405180910390fd5b5f5b81518110156110d0575f6001600160a01b03168282815181106120d1576120d1613b39565b6020026020010151602001516001600160a01b03161461210f5761210d82828151811061210057612100613b39565b6020026020010151612ba7565b505b6001016120ac565b6121215f8061104e565b6001600160a01b0316336001600160a01b031614610a5657604051630eaa87a560e21b815260040160405180910390fd5b336001600160a01b038216146121795761216d5f335f6123dc565b6121795f8260016123dc565b506009805474ff00000000000000000000000000000000000000001916600160a01b179055565b61ffff81165f9081526003602081905260408220015460ff161515900361166257604051632e53afcd60e01b815260040160405180910390fd5b5f806121e5836114b5565b905060068160078111156121fb576121fb6135f1565b148061221857506007816007811115612216576122166135f1565b145b156122265750600192915050565b505f92915050565b5f8073__$b8401669eb6e3c34470049924d5a7c9ef9$__6316e09b7a878787876040518563ffffffff1660e01b815260040161226d9493929190613cce565b602060405180830381865af4158015612288573d5f803e3d5ffd5b505050506040513d601f19601f820116820180604052508101906122ac9190613cfc565b5f8181526002602052604081205491925065ffffffffffff90911690036122e65760405163f661f4bf60e01b815260040160405180910390fd5b5f81815260026020526040902054600160601b900465ffffffffffff1615158061232b57505f81815260026020526040902054600160901b900465ffffffffffff1615155b156123495760405163b831530960e01b815260040160405180910390fd5b5f8181526002602052604080822080547fffffffffffffffff000000000000ffffffffffffffffffffffffffffffffffff16600160901b4365ffffffffffff16021790555182917f8eb4cfeba12ece86fc1590773502e55423b37db556543430337376b30d27c42b91a295945050505050565b333014610a565760405163e890ccbf60e01b815260040160405180910390fd5b5f1983036123fd5760405163a1dd2b9360e01b815260040160405180910390fd5b6001600160a01b038216612424576040516329f62b5d60e11b815260040160405180910390fd5b5f8381526004602090815260408083206001600160a01b0386168452909152902054158180156124515750805b156124f9575f84815260046020526040902060019081015461247291613efc565b5f8581526004602081815260408084206001600160a01b038981168087528285528387209790975593835281518083019092529481524365ffffffffffff9081168284019081526001968701805497880181558652929094209051940180549151949092166001600160d01b031990911617600160a01b939092169290920217905561267c565b81158015612505575080155b1561267c575f8481526004602052604081206001908101546125279190613d5f565b5f868152600460205260408120600101805492935090918390811061254e5761254e613b39565b5f918252602080832060408051808201825293909101546001600160a01b038082168552600160a01b90910465ffffffffffff16848401528a85526004808452828620918b16865281845291852054948b9052915290925082906001908101906125b89084613d5f565b815481106125c8576125c8613b39565b5f91825260208083208451920180549482015165ffffffffffff16600160a01b026001600160d01b03199095166001600160a01b039093169290921793909317905588815260049091526040902060010180548061262857612628613f0f565b5f82815260208082205f19908401810180546001600160d01b031916905590920190925588825260048152604080832094516001600160a01b03908116845294909152808220929092559186168252812055505b811515836001600160a01b0316857f294507a8f5830b538faef39fbdd28f1164f27c8338a32fc7b47ddf82e4c8d9e460405160405180910390a450505050565b5f806126c7876116ac565b604051630b704dbd60e11b815290915073__$b8401669eb6e3c34470049924d5a7c9ef9$__906316e09b7a90612707908a908a908a908a90600401613cce565b602060405180830381865af4158015612722573d5f803e3d5ffd5b505050506040513d601f19601f820116820180604052508101906127469190613cfc565b91508060c0015160ff165f0361276f57604051632dd4cc8d60e01b815260040160405180910390fd5b5f82815260026020526040902054600160c01b900465ffffffffffff16156127aa5760405163b831530960e01b815260040160405180910390fd5b61ffff87165f908152600360209081526040808320600490810180546001810182559085528385200186905585845260029092529091209081016127ef878983613dbe565b5080547dffffffffffffffffffffffffffffffffffffffffffffffff000000000000164365ffffffffffff16908117600160f01b61ffff8b1602177fffff000000000000ffffffffffffffffffffffffffffffffffffffffffffffff16600160c01b91909102178155602082015160018201805463ffffffff191663ffffffff9092169190911790556002810180546001600160a01b0319166001600160a01b038b16179055600681016128a38582613beb565b508481600301819055508761ffff16896001600160a01b0316847fb5856a9700a7e851456d3a16348b4ae0fbb11b06ac0af8dbe8e8652c57cc4cbd8a8a43886020015163ffffffff16436128f79190613efc565b8c8c60405161290b96959493929190613f23565b60405180910390a450509695505050505050565b600361292a856114b5565b600781111561293b5761293b6135f1565b14612959576040516322024acd60e21b815260040160405180910390fd5b5f8481526002602052604090208054600160f01b900461ffff1661297d8582611836565b61299a57604051637079d1b960e11b815260040160405180910390fd5b6001600160a01b0385165f90815260078301602052604090205460ff16156129d55760405163c9e3c8d960e01b815260040160405180910390fd5b6129e0868686612e97565b8360ff1686866001600160a01b03167f5be2678cab71c7d94235767eb1df3c57673f19e805cdc0edbd2e74854ae9f0f986604051612a1e91906131c0565b60405180910390a4505050505050565b5f81815260026020526040812080548290612a5390600160f01b900461ffff166116ac565b80515f9081526004602052604090206001015460c08201519192509060ff16158061186757506001830154606490612aa19063ffffffff600160601b8204811691600160401b900416613f74565b63ffffffff16612ab19190613f90565b60c0830151612ac39060ff1683613f90565b111595945050505050565b5f81815260026020526040812080548290612af390600160f01b900461ffff166116ac565b80515f9081526004602052604090206001015460c08201519192509060ff16158061186757506001830154612b3790606490600160401b900463ffffffff16613f90565b60e0830151612ac39060ff1683613f90565b6060612b757f00000000000000000000000000000000000000000000000000000000000000005f612f82565b905090565b6060612b757f00000000000000000000000000000000000000000000000000000000000000006001612f82565b5f612bbd826020015163a988d3f560e01b61302b565b612bef576020820151604051631f09f19160e21b81526001600160a01b03909116600482015260240160405180910390fd5b612c1482602001516001600160a01b03165f9081526005602052604090205460ff1690565b15612c32576040516334d52f6b60e01b815260040160405180910390fd5b6060820151515f19148015612c5157505f826060015160c0015160ff16115b15612c6f57604051632e562fc560e01b815260040160405180910390fd5b6006805461ffff9081165f908152600360208181526040808420909201805460ff191660019081179091558782015186548616855283852080546001600160a01b039092166001600160a01b031990921691909117905560608089015187548716865284862081519381019390935592830151600290920180549484015191840151608085015160a086015160c087015160e09097015160ff908116600160881b0271ff00000000000000000000000000000000001991909816600160801b0270ff0000000000000000000000000000000019928c16600160701b029290921670ffffff000000000000000000000000000019938c16600160601b026dffff0000000000000000000000001963ffffffff968716600160401b02166dffffffffffff0000000000000000199887166401000000000267ffffffffffffffff19909c169690991695909517999099179590951695909517919091171694909417919091171617905582549091169190612de683613fa7565b91906101000a81548161ffff021916908361ffff1602179055505081602001516001600160a01b031663b1f50f89600160065f9054906101000a900461ffff16612e309190613d45565b845f015185604001516040518463ffffffff1660e01b8152600401612e5793929190613fc7565b5f604051808303815f87803b158015612e6e575f80fd5b505af1158015612e80573d5f803e3d5ffd5b50506006546110b792506001915061ffff16613d45565b5f8381526002602090815260408083206001600160a01b038616845260078101909252909120805460ff1916600117905560ff8216612f1457600181018054640100000000900463ffffffff16906004612ef083614010565b91906101000a81548163ffffffff021916908363ffffffff160217905550506116a6565b5f1960ff831601612f3e57600181018054600160401b900463ffffffff16906008612ef083614010565b60011960ff831601612f6957600181018054600160601b900463ffffffff1690600c612ef083614010565b6040516333397b4360e11b815260040160405180910390fd5b606060ff8314612f9c57612f958361304d565b90506110b7565b818054612fa890613b01565b80601f0160208091040260200160405190810160405280929190818152602001828054612fd490613b01565b801561301f5780601f10612ff65761010080835404028352916020019161301f565b820191905f5260205f20905b81548152906001019060200180831161300257829003601f168201915b505050505090506110b7565b5f6130358361308a565b8015613046575061304683836130bc565b9392505050565b60605f61305983613154565b6040805160208082528183019092529192505f91906020820181803683375050509182525060208101929092525090565b5f61309c826301ffc9a760e01b6130bc565b80156110b757506130b5826001600160e01b03196130bc565b1592915050565b6040516001600160e01b0319821660248201525f90819060440160408051601f19818403018152919052602080820180517bffffffffffffffffffffffffffffffffffffffffffffffffffffffff166301ffc9a760e01b17815282519293505f9283928392909183918a617530fa92503d91505f519050828015613141575060208210155b8015611043575015159695505050505050565b5f60ff8216601f8111156110b757604051632cd44ac360e21b815260040160405180910390fd5b5f6020828403121561318b575f80fd5b5035919050565b5f81518084528060208401602086015e5f602082860101526020601f19601f83011685010191505092915050565b602081525f6130466020830184613192565b803561ffff81168114611a35575f80fd5b5f602082840312156131f3575f80fd5b613046826131d2565b5f8083601f84011261320c575f80fd5b50813567ffffffffffffffff811115613223575f80fd5b6020830191508360208260051b850101111561323d575f80fd5b9250929050565b5f805f805f805f8060a0898b03121561325b575f80fd5b613264896131d2565b975060208901359650604089013567ffffffffffffffff811115613286575f80fd5b6132928b828c016131fc565b909750955050606089013567ffffffffffffffff8111156132b1575f80fd5b6132bd8b828c016131fc565b909550935050608089013567ffffffffffffffff8111156132dc575f80fd5b6132e88b828c016131fc565b999c989b5096995094979396929594505050565b5f8083601f84011261330c575f80fd5b50813567ffffffffffffffff811115613323575f80fd5b60208301915083602082850101111561323d575f80fd5b5f805f806060858703121561334d575f80fd5b613356856131d2565b9350602085013567ffffffffffffffff811115613371575f80fd5b61337d878288016132fc565b9598909750949560400135949350505050565b5f80604083850312156133a1575f80fd5b50508035926020909101359150565b6001600160a01b0381168114611662575f80fd5b5f80604083850312156133d5575f80fd5b8235915060208301356133e7816133b0565b809150509250929050565b634e487b7160e01b5f52604160045260245ffd5b604051610100810167ffffffffffffffff8111828210171561342a5761342a6133f2565b60405290565b6040516080810167ffffffffffffffff8111828210171561342a5761342a6133f2565b604051601f8201601f1916810167ffffffffffffffff8111828210171561347c5761347c6133f2565b604052919050565b5f8067ffffffffffffffff84111561349e5761349e6133f2565b50601f8301601f19166020016134b381613453565b9150508281528383830111156134c7575f80fd5b828260208301375f602084830101529392505050565b5f82601f8301126134ec575f80fd5b61304683833560208501613484565b5f805f805f6080868803121561350f575f80fd5b613518866131d2565b9450602086013567ffffffffffffffff811115613533575f80fd5b61353f888289016132fc565b90955093505060408601359150606086013567ffffffffffffffff811115613565575f80fd5b613571888289016134dd565b9150509295509295909350565b8015158114611662575f80fd5b5f806040838503121561359c575f80fd5b82356135a7816133b0565b915060208301356133e78161357e565b803560ff81168114611a35575f80fd5b5f80604083850312156135d8575f80fd5b823591506135e8602084016135b7565b90509250929050565b634e487b7160e01b5f52602160045260245ffd5b602081016008831061362557634e487b7160e01b5f52602160045260245ffd5b91905290565b5f6020828403121561363b575f80fd5b8135613046816133b0565b5f805f8060608587031215613659575f80fd5b84359350613669602086016135b7565b9250604085013567ffffffffffffffff811115613684575f80fd5b613690878288016132fc565b95989497509550505050565b5f610100820190508251825263ffffffff602084015116602083015263ffffffff604084015116604083015263ffffffff606084015116606083015260808301516136ed608084018261ffff169052565b5060a083015161370360a084018261ffff169052565b5060c083015161371860c084018260ff169052565b5060e083015161372d60e084018260ff169052565b5092915050565b60ff60f81b8816815260e060208201525f61375260e0830189613192565b82810360408401526137648189613192565b606084018890526001600160a01b038716608085015260a0840186905283810360c0850152845180825260208087019350909101905f5b818110156137b957835183526020938401939092019160010161379b565b50909b9a5050505050505050505050565b5f80604083850312156137db575f80fd5b6137e4836131d2565b946020939093013593505050565b5f8060408385031215613803575f80fd5b823561380e816133b0565b91506135e8602084016131d2565b5f6020828403121561382c575f80fd5b813567ffffffffffffffff811115613842575f80fd5b61384e848285016134dd565b949350505050565b5f8060408385031215613867575f80fd5b82359150602083013567ffffffffffffffff811115613884575f80fd5b613890858286016134dd565b9150509250929050565b803563ffffffff81168114611a35575f80fd5b5f61010082840312156138be575f80fd5b6138c6613406565b8235815290506138d86020830161389a565b60208201526138e96040830161389a565b60408201526138fa6060830161389a565b606082015261390b608083016131d2565b608082015261391c60a083016131d2565b60a082015261392d60c083016135b7565b60c082015261393e60e083016135b7565b60e082015292915050565b5f610160828403121561395a575f80fd5b613962613430565b9050813567ffffffffffffffff81111561397a575f80fd5b613986848285016134dd565b8252506020820135613997816133b0565b6020820152604082013567ffffffffffffffff8111156139b5575f80fd5b8201601f810184136139c5575f80fd5b6139d484823560208401613484565b6040830152506139e783606084016138ad565b606082015292915050565b5f60208284031215613a02575f80fd5b813567ffffffffffffffff811115613a18575f80fd5b61384e84828501613949565b5f8060408385031215613a35575f80fd5b82356137e4816133b0565b5f60208284031215613a50575f80fd5b813567ffffffffffffffff811115613a66575f80fd5b8201601f81018413613a76575f80fd5b803567ffffffffffffffff811115613a9057613a906133f2565b8060051b613aa060208201613453565b91825260208184018101929081019087841115613abb575f80fd5b6020850192505b8383101561104357823567ffffffffffffffff811115613ae0575f80fd5b613aef89602083890101613949565b83525060209283019290910190613ac2565b600181811c90821680613b1557607f821691505b602082108103613b3357634e487b7160e01b5f52602260045260245ffd5b50919050565b634e487b7160e01b5f52603260045260245ffd5b5f808335601e19843603018112613b62575f80fd5b83018035915067ffffffffffffffff821115613b7c575f80fd5b60200191503681900382131561323d575f80fd5b818382375f9101908152919050565b601f821115613be657805f5260205f20601f840160051c81016020851015613bc45750805b601f840160051c820191505b81811015613be3575f8155600101613bd0565b50505b505050565b815167ffffffffffffffff811115613c0557613c056133f2565b613c1981613c138454613b01565b84613b9f565b6020601f821160018114613c4b575f8315613c345750848201515b5f19600385901b1c1916600184901b178455613be3565b5f84815260208120601f198516915b82811015613c7a5787850151825560209485019460019092019101613c5a565b5084821015613c9757868401515f19600387901b60f8161c191681555b50505050600190811b01905550565b81835281816020850137505f828201602090810191909152601f909101601f19169091010190565b61ffff85168152606060208201525f613ceb606083018587613ca6565b905082604083015295945050505050565b5f60208284031215613d0c575f80fd5b5051919050565b634e487b7160e01b5f52601160045260245ffd5b65ffffffffffff81811683821601908111156110b7576110b7613d13565b61ffff82811682821603908111156110b7576110b7613d13565b818103818111156110b7576110b7613d13565b61ffff8716815260a060208201525f613d8f60a083018789613ca6565b6001600160a01b0395909516604083015250606081019290925265ffffffffffff166080909101529392505050565b67ffffffffffffffff831115613dd657613dd66133f2565b613dea83613de48354613b01565b83613b9f565b5f601f841160018114613e1b575f8515613e045750838201355b5f19600387901b1c1916600186901b178355613be3565b5f83815260208120601f198716915b82811015613e4a5786850135825560209485019460019092019101613e2a565b5086821015613e66575f1960f88860031b161c19848701351681555b505060018560011b0183555050505050565b6001600160a01b038616815261ffff85166020820152608060408201525f613ea4608083018587613ca6565b90508260608301529695505050505050565b5f60208284031215613ec6575f80fd5b81516130468161357e565b606081525f613ee4606083018688613ca6565b84602084015282810360408401526110438185613192565b808201808211156110b7576110b7613d13565b634e487b7160e01b5f52603160045260245ffd5b60c081525f60c082015260e060208201525f613f4360e08301888a613ca6565b86604084015285606084015284608084015282810360a0840152613f678185613192565b9998505050505050505050565b63ffffffff81811683821601908111156110b7576110b7613d13565b80820281158282048414176110b7576110b7613d13565b5f61ffff821661ffff8103613fbe57613fbe613d13565b60010192915050565b61ffff84168152608060208201525f613fe36080830185613192565b8281038060408501525f8252602081016060850152506140066020820185613192565b9695505050505050565b5f63ffffffff821663ffffffff8103613fbe57613fbe613d1356fea2646970667358221220cc4dd1f16b567b95f0182c1413b6a4dc3b5421a622dffefe03b2caad1fb9b2c364736f6c634300081a0033","linkReferences":{"src/libraries/Checks.sol":{"Checks":[{"start":6461,"length":20},{"start":9444,"length":20},{"start":10115,"length":20},{"start":11243,"length":20},{"start":12434,"length":20}]}}},"methodIdentifiers":{"ADMIN_ROLE()":"75b238fc","DENOMINATOR()":"918f8674","MAX_CALLDATA_LENGTH()":"edf2a596","MAX_EXECUTIONS_LENGTH()":"f6226e7c","MAX_RETURN_DATA_LENGTH()":"7c1b5539","PUBLIC_ROLE()":"3ca7c02a","adoptMandate((string,address,bytes,(uint256,uint32,uint32,uint32,uint16,uint16,uint8,uint8)))":"b4497115","assignRole(uint256,address)":"685b824a","blacklistAddress(address,bool)":"455a4396","canCallMandate(address,uint16)":"93d7dae5","cancel(uint16,bytes,uint256)":"12561b1a","castVote(uint256,uint8)":"56781388","castVoteWithReason(uint256,uint8,string)":"7b3c71d3","closeConstitute()":"0d7abeaa","closeConstitute(address)":"7258883f","constitute((string,address,bytes,(uint256,uint32,uint32,uint32,uint16,uint16,uint8,uint8))[])":"fc2d96d0","eip712Domain()":"84b0196e","fulfill(uint16,uint256,address[],uint256[],bytes[])":"0de6a601","getActionCalldata(uint256)":"d902bf3a","getActionData(uint256)":"4583476b","getActionReturnData(uint256,uint256)":"41bd157d","getActionState(uint256)":"666ca2d6","getActionUri(uint256)":"f2a0bb75","getActionVoteData(uint256)":"2179e04e","getAdoptedMandate(uint16)":"1031bdb0","getAmountRoleHolders(uint256)":"b4324dd3","getConditions(uint16)":"831af379","getLatestFulfillment(uint16)":"040b8c24","getMandateActionAtIndex(uint16,uint256)":"8a4359e0","getMandateCounter()":"055dbe10","getQuantityMandateActions(uint16)":"edfd2e87","getRoleHolderAtIndex(uint256,uint256)":"199093bb","getRoleLabel(uint256)":"0398f05f","getTreasury()":"3b19e84a","hasRoleSince(address,uint256)":"cc5812cf","hasVoted(uint256,address)":"43859632","isBlacklisted(address)":"fe575a87","labelRole(uint256,string)":"ab776bf2","mandateCounter()":"e88efe35","name()":"06fdde03","propose(uint16,bytes,uint256,string)":"2e2d8253","request(uint16,bytes,uint256,string)":"ebef6d97","revokeMandate(uint16)":"b367cac0","revokeRole(uint256,address)":"1d0b19e7","setTreasury(address)":"f0f44260","setUri(string)":"9b642de1","uri()":"eac989f8","version()":"54fd4d50"},"id":118}